:020000040800F2
:1000000068C70120A5010008851D0008F910000837
:10001000811D000859030008574500080000000032
:100020000000000000000000000000009B3B0008F2
:100030007D08000800000000151E0008B13C000803
:10004000BF010008BF010008BF010008BF01000890
:10005000BF010008BF010008BF010008BF01000880
:10006000BF010008BF010008BF010008BF01000870
:10007000BF010008BF010008BF0100085D050008BE
:10008000BF010008BF010008BF010008BF01000850
:10009000BF010008BF010008BF010008BF01000840
:1000A000BF010008BF010008BF010008BF01000830
:1000B000BF010008BF010008BF010008BF01000820
:1000C000BF010008BF010008BF010008BF01000810
:1000D000BF01000851420008BF010008BF0100082D
:1000E000BF010008BF010008BF010008BF010008F0
:1000F000BF010008BF010008BF010008BF010008E0
:10010000BF01000859210008BF010008BF01000815
:10011000BF010008BF010008BF010008BF010008BF
:10012000BF010008BF010008BF010008BF010008AF
:10013000BF010008BF010008BF010008BF0100089F
:10014000BF010008BF010008BF010008BF0100088F
:10015000BF010008BF010008BF010008BF0100087F
:10016000BF010008BF010008BF010008BF0100086F
:10017000BF010008BF010008BF010008BF0100085F
:10018000BF010008BF010008DFF80CD000F0D2F872
:1001900000480047457B000868C7012072B67047D9
:1001A00062B670470648804706480047FEE7FEE70C
:1001B000FEE7FEE7FEE7FEE7FEE7FEE7FEE7FEE717
:1001C000F13C0008890100082DE9F05F0546002098
:1001D00092469B4688460646814640241BE02846B8
:1001E00041464746224600F095F853465A46C01A03
:1001F000914110D311461846224600F07CF82D1A82
:1002000067EB01084F4622460120002100F073F8F9
:1002100017EB00094E41201EA4F10104DFDC484623
:1002200031462A464346BDE8F09F2DE9F0410024BF
:10023000061B254671F1000605DA01240027D0EBE4
:10024000070067EB0101161E73F1000605DA0027AF
:10025000D2EB0702012567EB0303FFF7B5FF8646E4
:100260000E4617469C46AC4204D00025D0EB050E46
:1002700065EB010624B10020D2EB000760EB030C14
:10028000704631463A466346BDE8F08140EA0103D4
:100290009B0703D009E008C9121F08C0042AFAD23C
:1002A00003E011F8013B00F8013B521EF9D2704700
:1002B000421E12F8013F002BFBD111F8013B02F85E
:1002C000013B002BF9D1704710B5002200E0521C11
:1002D000835C8C5CA34201D1002BF8D1D8B2E1B28F
:1002E000401A10BD034611F8012B00F8012B002A1B
:1002F000F9D118467047202A04DB203A00FA02F1AF
:10030000002070479140C2F1200320FA03F3194303
:1003100090407047202A04DB203A21FA02F00021A5
:10032000704721FA02F3D040C2F120029140084305
:1003300019467047064C074D06E0E06840F001039F
:1003400094E8070098471034AC42F6D3FFF720FF3B
:10035000D4D90008F4D9000800BFFEE770B5002525
:100360004FF4803404E0802001F0E2FE00B103E0AD
:10037000201EA4F10104F6D100BF0CB9032070BD0A
:1003800040F2FF5001F0AAFE2846F8E770B5044697
:1003900005E01648056805F0450000B100E0F8E703
:1003A00000BF042001F0C4FE20B1042001F096FE3D
:1003B000032070BD012001F0BBFE20B1012001F03F
:1003C0008DFE0120F5E7094824380068A04201D0DD
:1003D0001020EEE740F2FF5001F080FE0348203885
:1003E000006808210840C0B2E3E70000342C014057
:1003F00070B500264FF4803505E01148046804F01C
:10040000450000B103E0281EA5F10105F5D100BFAC
:1004100015B104F0040028B10326042001F05EFEAB
:10042000304670BD012001F083FE18B10126012085
:1004300001F054FE40F2FF5001F050FE3046F0E76C
:10044000342C014010B505E00B48046804F0450069
:1004500000B100E0F8E700BF042001F069FE20B120
:10046000042001F03BFE032010BD40F2FF5001F0DC
:1004700035FE0020F8E70000342C01402DE9F04162
:1004800005460E464FF0000805E02048076807F0D3
:10049000450000B100E0F8E700BF042001F048FE8D
:1004A00028B1042001F01AFE0320BDE8F0810120EC
:1004B00001F03EFE20B1012001F010FE0120F4E722
:1004C000124824380068A84201D01020EDE740F21D
:1004D000FF5001F003FE0D482038046804F460402A
:1004E00018B9200C30804046DFE704F4005008B112
:1004F0001320DAE704F4804008B11020D5E704F4B3
:10050000004008B10F20D0E74046CEE7342C014030
:1005100070B500264FF4803505E00F48046804F0FC
:10052000450000B103E0281EA5F10105F5D100BF8B
:1005300015B104F0040028B10326042001F0CEFD1B
:10054000304670BD04F0400018B10026402001F094
:10055000C5FD3046F5E70000342C014010B50749D1
:10056000074800F00FF9012806D10449044800F0BB
:100570000BF804480068804710BD00002080002070
:1005800070600240AC0000200246094B9A4201D242
:10059000084801E00648103801F000531BB1064B33
:1005A0000B40C36002E0044B0B40836070470000C7
:1005B00010640240006002407D0F7D0F21B102688F
:1005C00042F00102026003E0026822F001020260D0
:1005D00070470000016821F0010101600021016005
:1005E00041608160C1600161212141614A498842C5
:1005F00004D13D21484A103A91608CE046491831B7
:10060000884205D14FF47461434A103A916082E008
:1006100041493031884205D14FF474113E4A103AB5
:10062000916078E03C494831884205D14FF07461CF
:10063000394A103A91606EE037496031884204D1FE
:100640003649354A103AD16065E0334978318842FD
:1006500004D13349304A103AD1605CE02E499031E0
:10066000884204D12F492C4A103AD16053E02A49DC
:10067000A831884205D14FF03D51274A103AD16048
:1006800049E02949884204D13D21274A083A1160AE
:1006900041E025491831884205D14FF47461224A5E
:1006A000083A116037E020493031884205D14FF4D3
:1006B00074111D4A083A11602DE01B4948318842E7
:1006C00005D14FF07461184A083A116023E01649C9
:1006D0006031884204D11149134A121F11601AE097
:1006E00011497831884204D10D490F4A121F116017
:1006F00011E00D499031884204D10A490A4A121F7B
:10070000116008E00849A831884204D14FF03D51FA
:10071000054A121F11607047106002403D00002022
:10072000400F002000003D201064024021B102680B
:1007300042F48022026003E0026822F48022026018
:10074000704722B1036843F40023036003E00368A9
:1007500023F4002303600161704721B1026842F075
:100760002002026003E0026822F02002026070476B
:10077000014600200A6802F001020AB1012000E0EF
:100780000020704770B50246002000240025124E5C
:10079000B24201D2114B01E00F4B103B104E0E4004
:1007A00036B11E2606EAD124166806EA040502E0E0
:1007B000566906F0800501F000560EB15C6800E055
:1007C0001C68084E344004EA010616B10DB1012040
:1007D00000E0002070BD0000106402400060024094
:1007E0003C0F3C0F7D0F7D0F10B501F080034BB126
:1007F00022B1436943F08003436103E0436923F07E
:100800008003436180290BD02AB1036801F01E04E4
:100810002343036004E0036801F01E04A343036064
:1008200010BD000010B500220268134B1A40CC68BE
:100830000B6823434C6923438C692343CC692343CE
:100840000C6A23434C6A23438C6A23434C6B234337
:100850008C6B23431A430260426922F00702D1E9FC
:100860000B3423431A4342610B6943604B68836036
:100870008B68C36010BD00003F801CF07047000013
:1008800010B50446214610A003F0EEFF240300F04B
:1008900035F900F0CDF800200D490860202003F064
:1008A0000BF9C4F3074003F007F9C4F3072003F082
:1008B00003F9E0B203F000F901200649C1F8B802DB
:1008C00000F0B6F810BD000066653A25780D0A0004
:1008D000B8824042008040421CB50121022001F054
:1008E0009BFA0121402001F097FA4FF480400090DC
:1008F00001208DF8040000208DF8060003208DF8FB
:10090000050001208DF8070069460F4800F00EFB36
:100910008020009069460D4800F008FB80210B48BC
:1009200000F06FFB01200A49086003F063F8002023
:1009300003F0DEF800F042F8064908800846018816
:1009400005A003F091FF1CBD000402400018024006
:10095000B882404234000020454E32355158585F2D
:10096000545950453D25580D0A0000002DE9F0412D
:1009700006460C46174600200F490860032003F086
:100980009BF8C4F3074003F097F8C4F3072003F083
:1009900093F8E0B203F090F8002505E0FF2003F0A3
:1009A0008BF87055681C85B2BD42F7DB0120024907
:1009B0000860BDE8F0810000B882404210B5002414
:1009C00000200E490860902003F076F8002003F024
:1009D00073F8002003F070F8002003F06DF8FF209A
:1009E00003F06AF844EA0024FF2003F065F80443AA
:1009F00001200349C1F8B802204610BDB882404228
:100A00000080404210B500240020074908600520FE
:100A100003F052F8FF2003F04FF804460120034989
:100A2000C1F8B802204610BDB88240420080404262
:100A300010B500BFFFF7E6FF00F001000028F9D174
:100A400010BD00002DE9F05F81460F461646DFF825
:100A5000A8B04FEA1738C7F30B0ACAF58054A6426C
:100A600000DC344644E04FEA08314FF480525846E7
:100A7000FFF77CFF002508E00AEB05001BF80000EB
:100A8000FF2800D003E0681C85B2A542F4DB00BF5C
:100A9000A54216DA4046FFF7F3FE002507E019F8F5
:100AA000050005EB0A010BF80100681C85B2A542A0
:100AB000F5DB4FEA08314FF48052584600F02EF82B
:100AC00004E022463946484600F028F8A64200D104
:100AD0000FE008F101084FF0000AA1442744301B41
:100AE00086B2B6F5805F02DD4FF4805400E03446F4
:100AF000B9E700BFBDE8F09F8004002010B50020DA
:100B000004490860062002F0D7FF01200249C1F81D
:100B1000B80210BDB8824042008040422DE9F04149
:100B200007460E461446F0B2C0F58075AC4200DCB4
:100B3000254612E02A463146384600F013F8AC420A
:100B400000D10BE02F442E44601B84B2B4F5807FAB
:100B500002DD4FF4807500E02546EBE700BFBDE8FD
:100B6000F08100002DE9F04106460C461746FFF7DC
:100B7000C5FF00200F490860022002F09DFFC4F36A
:100B8000074002F099FFC4F3072002F095FFE0B29E
:100B900002F092FF002504E0705D02F08DFF681CFA
:100BA00085B2BD42F8DB012002490860FFF740FF33
:100BB000BDE8F081B882404210B500240EE04FF449
:100BC0000D71002007F0CCF9184941F824000846BF
:100BD00050F8240000B903E0601CC4B2042CEEDB22
:100BE00000BF4FF41471002007F0BAF910490860F3
:100BF0004FF41471002007F0B3F90E4908604FF468
:100C00000071002007F0ACF90B490860042C0AD1F0
:100C10000748006838B10748006820B108460068F6
:100C200008B1002010BD0120FCE7000090BD0120AC
:100C3000D8000020DC000020E800002051B1820034
:100C4000A2F1C042126842F001038200A2F1C04248
:100C5000136009E08200A2F1C0421268034B1A40FF
:100C60008300A3F1C0431A6070470000FEFF0F002D
:100C700030B50021002200230468A400A4F1C04480
:100C80002168444C2140D0E901452C43C5682C43E0
:100C900005692C4345692C4385692C43C5692C4360
:100CA000056A2C43456A2C43856A2C43C56A2C434C
:100CB000056B2C4321430468A400A4F1C0442160C7
:100CC0008468082C0BD10468A400A4F1C0442468F3
:100CD00044F040050468A400A4F1C0442560046801
:100CE000641CA400A4F1C044226802F04042446B9A
:100CF0002468456B6D6844EA0514456BAD6844EAA9
:100D00000524456BAD8944EA0544456B2D8A44EAC8
:100D10000554456B2D7D44EA0564456BAD692C4354
:100D200022430468641CA400A4F1C0442260C46A85
:100D3000B4F5804F24D10468A400A4F1C044D4F8D1
:100D4000043103F04043846B2468856B6D6844EA8A
:100D50000514856BAD6844EA0524856B2D8A44EA49
:100D60000554856B2D7D44EA0564856BAD692C4384
:100D700023430468A400A4F1C044C4F8043107E08C
:100D80006FF070450468A400A4F1C044C4F8045195
:100D900030BD00008000F7FF2DE9FC4107460D46FD
:100DA0000026002400200090019008205B49086084
:100DB00010204860402088600020C8604FF48060A8
:100DC0000861084601F000FA1020FFF7DFFA044638
:100DD00014B12046BDE8FC815148008800044F4909
:100DE000086037204860402088600020C8604FF4C9
:100DF00080600861084601F0E7F93720FFF7C6FA7E
:100E000004460CB12046E5E74FF0FF304549086045
:100E100008204860302088600220C86000200861F7
:100E200001204861084601F069F900203B4908604B
:100E300033204860402088600020C8604FF4806004
:100E40000861084601F0C0F93320FFF79FFA044615
:100E50000CB12046BEE70CE04FF4001001F068F939
:100E600038B1314800684DF82600761C022E00D3B8
:100E700007E02D484C38006840F22A6108400028FD
:100E8000EAD000BF082001F053F920B1082001F09A
:100E900025F904209EE7022001F04AF920B1022042
:100EA00001F01CF9022095E7202001F041F920B162
:100EB000202001F013F906208CE74FF4007001F0B8
:100EC00037F928B14FF4007001F008F9072081E7E5
:100ED00040F2FF5001F002F900980006009901F479
:100EE0007F4140EA0120009901F47F0140EA11208E
:100EF000009940EA1160686001980006019901F4C8
:100F00007F4140EA0120019901F47F0140EA11206C
:100F1000019940EA1160286020465BE7D801002073
:100F200028000020EC010020802C0140F0B50A468A
:100F300000210023002400BF3DE0012505FA01F354
:100F4000156805EA03049C4234D105684F00032666
:100F5000BE40B543056015794E00B540066835437F
:100F600005601579012D02D01579022D16D18568FD
:100F70004F000326BE40B543856055794E00B5400D
:100F8000866835438560456801268E40B5434560D7
:100F9000456896798E40B6B235434560C5684F00C6
:100FA0000326BE40B543C560D5794E00B540C6683E
:100FB0003543C560491C1029BFD3F0BDF0B50023EF
:100FC00000244D07ED0E02FA05F3CE1000F12005C6
:100FD00055F826504E07F70E0F26BE40B543CF10EA
:100FE00000F1200646F82750CE1000F1200555F8F4
:100FF000265045EA0304CE1000F1200545F82640AE
:10100000F0BD0183704700002DE9F05F82468846FD
:1010100014462046E21704EB5272D2102146E31721
:1010200004EB5373DB10A4EBC3030BB1012300E00B
:1010300000231A44624302F0FF099AF800600AF1A3
:10104000010082460578812E05DB402D03DBFF2D54
:1010500001D0FF2E0DD14FF0000B06E0002008F864
:10106000010B0BF1010000F0FF0BCB45F6DBBDE8F7
:10107000F09F7F2D03DAA5F14000C5B202E0A5F193
:101080004100C5B2A6F18100C6B2BE2010FB0650D9
:1010900000FB09F70C2C06D0102C0DD0182C14D006
:1010A000202C24D11AE01348D0F80900C1194A466F
:1010B0004046FFF75BFC1AE00E48D0F81100C1195A
:1010C0004A464046FFF752FC11E00A48D0F81900A2
:1010D000C1194A464046FFF749FC08E00548D0F8E8
:1010E0002100C1194A464046FFF740FC00BF00BF3F
:1010F00000BFBCE708BF012000BFFEE72DE9FF41AC
:1011000004460F4615461E460121880300F0A4FE42
:101110000121880300F0B0FE00214FF4804000F070
:10112000ABFEADF80070ADF80240ADF804600020F1
:10113000ADF8060002200290ADF80C506946074851
:1011400000F0BCF801220221044802F0F1FC012168
:10115000024800F0A7F8BDE8FF8100000038004019
:1011600070B50546002400260A20B5FBF0F500BF47
:1011700009E004EB84001F4931F81000A84200D1B7
:1011800003E0601CC4B20B2CF3D300BF002000F0BE
:1011900017FF0B2C01D1012070BD04EB8402154B0D
:1011A00003EB4202918804EB840203EB4202508875
:1011B00000F00CFF1048006840F080600E490860A5
:1011C00000BF0D48006800F000600028F9D004EB73
:1011D0008400084901EB4000C68804EB840001EB61
:1011E0004000008946EA002646F4007603490E8056
:1011F0000020D1E77ED400080038024020380040AB
:1012000070B590B004460E4615460121480500F021
:1012100003FE2248FFF7DEF900BF2048FFF7A8FAD7
:101220000028FAD100901E480190029440200390BB
:101230000495002005904FF48060069040000790D0
:10124000800008904011099040020A9000200B9005
:101250000C900D900E9069461048FFF7E3FA0022BB
:1012600031460E48FFF76DFA01210C48FFF75EFA90
:10127000012210210948FFF7B7FA0F208DF83C0032
:1012800000208DF83D008DF83E0001208DF83F00D4
:101290000FA800F079FD10B070BD00007060024032
:1012A0000C38004021B1828B42F48062828304E0DA
:1012B000828B4FF6FF331A40828370472DE9F04F3F
:1012C0000025022300244FF00109002200260027F8
:1012D00094469046B0F81CA04FF2400B0AEA0B0A65
:1012E000A0F81CA04FF0020AA0F820A0858BD1F82E
:1012F00008A0BAF1020F01D100BF82E0B1F804A04A
:10130000BAF1000F02D14FF0010901E04FF00209DC
:10131000DFF834A1DAF800A00AF4000ABAF1000FED
:1013200009D0DFF824A1DAF800A02AF4000ADFF8D7
:1013300018B1CBF800A0DFF810A10AF17C0ADAF8A6
:1013400000A0CAF3881CDFF800A10AF17C0ADAF8D1
:1013500000A0CAF30278DFF8F0A0AAF1040ADAF8D4
:1013600000A00AF03F07DFF8E0A0AAF1040ADAF8CB
:1013700000A00AF4800ABAF5800F08D1DFF8CCA0EB
:10138000BAFBF7FA0AFB0CFABAFBF8F607E0DFF84B
:10139000C0A0BAFBF7FA0AFB0CFABAFBF8F6B1F8F0
:1013A00006A0BAF5007F0ED14FEA162A0AEB8A0A88
:1013B0004FEA4A0AD1F808B0BAFBFBFA0AF1050A6B
:1013C0001FFA8AF20FE04FEA491AB6FBFAFA0AEB63
:1013D0008A0A4FEA4A0AD1F808B0BAFBFBFA0AF1C6
:1013E000050A1FFA8AF24FF00A0AB2FBFAF202F07B
:1013F0000104A2EB040ACAF34F034FF6FF7A0AEA8C
:101400000424022B01DBFF2B01DD02230024B1F8B1
:1014100006A04AEA040A4AEA030AA0F820A0B1F8A2
:1014200004A0B1F80CB04AEA0B0AB1F802B04AEADB
:101430000B0AB1F800B04AEA0B0A4AF4006A4AEA19
:1014400005058583BDE8F08F0838024000127A0058
:101450000024F40010B501210148FFF7AFF810BDDA
:101460007060024010B500210148FFF7A7F810BDD9
:10147000706002401CB50121022000F0CDFC4FF449
:101480004070009001208DF8040000208DF80600C7
:1014900003208DF8050001208DF8070069460548F6
:1014A000FFF744FD0120044908600449C1F8A40283
:1014B0001CBD000000040240A08240420080404267
:1014C00070B5044600F09CFD00201449086000251A
:1014D00020E004F08000002804DD01200F49091DF0
:1014E000086003E000200D49091D08606006040E35
:1014F000022004F011F9012008490860022004F0DC
:101500000BF900200649C1F8A002022004F004F9FA
:10151000681CC5B2082DDCDB70BD0000A082404213
:101520000080404210B500F06BFD012009490860C1
:101530000949C1F8A002052004F0EEF80020054991
:101540000860062004F0E8F800200349C1F8A00272
:1015500010BD0000A48240420080404210B500F05F
:101560004FFD0020094908600949C1F8A402012083
:1015700006490860062004F0CFF801200449C1F8AC
:10158000A402062004F0C8F810BD0000A08240426A
:101590000080404210B5002400F020FD01200E49DB
:1015A000086004F0B9F801200C49C1F8A00204F069
:1015B000B3F807E0601CC4B2FA2C03DDFFF7CEFFDE
:1015C000012010BD0448803800680028F2D102498B
:1015D000091F086000BFF4E7A48240420080404237
:1015E0001CB50446002001900090224800880004A9
:1015F000214908600D204860402088600020C860B4
:101600004FF480600861084600F0DEFD1B4800686A
:10161000009002E0194800680090009800F0450032
:101620000028F7D0012000F083FD20B1012000F058
:1016300055FD01201CBD042000F07AFD20B10420DE
:1016400000F04CFD0320F5E70C48243800680D2815
:1016500001D01020EEE740F2FF5000F03FFD0748B8
:101660002038006801900198C0F3432020700020CA
:10167000E0E7000028000020D8010020342C0140C1
:101680001CB50121112000F0C7FB00208DF80400DB
:101690001C20009001208DF8070069460748FFF7DD
:1016A00045FC00208DF804000120009002208DF8F8
:1016B000070069460248FFF739FC1CBD00100240D4
:1016C0000000024010B50446012C01D122490870E7
:1016D0002148007801282AD12048006801280AD032
:1016E0001F48006838B11E48001F006818B11C4828
:1016F00008380068D8B90A2003F0CCFF002016494A
:10170000087016480068012800D110BD1448006810
:1017100008B90220F9E71248001F006808B9032041
:10172000F3E70F4808380068A0B90420EDE70B483C
:10173000006878B90A48006801280BD10848001FE2
:101740000068012806D1064808380068012801D140
:10175000014908700020D8E736000020000240420E
:101760001002424270B506460F484088401E83B2C0
:101770000D480088401E82B20021084600F081F822
:1017800000240CE0002504E0304600F0C7FA681C95
:1017900085B205484088A842F6DC601C84B2024845
:1017A0000088A042EEDC70BD1A00002000B50246A1
:1017B0000F4882716AB9362000F0A4FA002000F0C8
:1017C000A7FA4FF4F0700A4948804FF4A0700880DF
:1017D0000CE0362000F096FA602000F099FA4FF401
:1017E000A070034948804FF4F070088000BD0000ED
:1017F0001A00002070B504460D4616462B462246B8
:101800002946204600F03DF8304600F087FA70BDCA
:101810002DE9F04304460D4616461F46DDF81C80B0
:10182000B44201DCBD4201DDBDE8F0833B463246F7
:101830002946204600F025F8301B401C84B2781B56
:10184000401C85B20BE0A94602E0404600F066FA73
:10185000B9F10000A9F101011FFA81F9F5D1201EAB
:10186000A4F101018CB2EED100BFDDE710B5024654
:10187000012000E050430B1EA1F10104E1B2F9D1B7
:1018800010BD70B504460D462A2000F03BFA2646EE
:10189000E11704EB1161C1F30F2000F039FAE117F1
:1018A00004EB11610912A4EB012188B200F030FAB7
:1018B0001646D11702EB1161C1F30F2000F028FA90
:1018C0001646D11702EB11610912A2EB012188B271
:1018D00000F01EFA2B2000F015FA2E46E91705EB52
:1018E0001161C1F30F2000F013FAE91705EB116144
:1018F0000912A5EB012188B200F00AFA1E46D91799
:1019000003EB1161C1F30F2000F002FA1E46D91754
:1019100003EB11610912A3EB012188B200F0F8F981
:101920002C2000F0EFF970BD2DE9F84F80460E46EF
:1019300017461C46B3462046E31704EB5373DB10EF
:1019400021464FEAE47C04EB5C7C4FEAEC0CA4EB10
:10195000CC0CBCF1000F02D04FF0010C01E04FF0B5
:10196000000C6344224604EBD27C4FEA6C0C03FB70
:101970000CF3DBB20093A7F12000C7B2002556E0BC
:101980000C2C07D107EB47002B4901EB800010F826
:10199000059013E0102C05D1284800EB071010F833
:1019A00005900BE0182C07D107EBC700244901EB89
:1019B000800010F8059001E0BDE8F88F4FF0000AB4
:1019C0002FE009F0800030B11E48028831464046C1
:1019D000FFF710FF07E00A9828B91B480288314634
:1019E0004046FFF707FF4FEA49604FEA1069701C55
:1019F00086B216484088B04200DCDDE7A6EB0B005B
:101A0000A0420AD15E4608F101001FFA80F80F4893
:101A10000088404500DCCFE706E00AF1010000F055
:101A2000FF0ABAF1080FCCDB00BF681CC5B20098F2
:101A30008542A5DB00BFBFE7668B0008DA8F000890
:101A4000CA95000816000020180000201A00002087
:101A50002DE9FE4F07460E4691469A46DDE90D4BAD
:101A60000C9DB8460296002001904CE0019870BB96
:101A70002878802802DD0120019044E004EBD47135
:101A800008EB0902A2EB6101B94202DA301986B211
:101A9000474602985044001BB04200DA36E02878EE
:101AA0000D2804D1301986B247466D1C07E0CDF8E9
:101AB00000B02A78234631463846FFF735FF6D1CC3
:101AC000204604EBD07107EB61018FB21BE0FFE70A
:101AD0000020019008EB0900001BB84202DA30191F
:101AE00086B2474602985044001BB04200DA0DE02F
:101AF00023462A4631463846CDF800B000F03CF87F
:101B0000AD1C381987B228780028AFD100BFBDE8D6
:101B1000FE8F2DE9F84704460D4690469946DDE9CB
:101B2000096704F0FF0A08EB04001FFA80F809EBCC
:101B300005001FFA80F916E0444502DB5446A81957
:101B400085B24D4500DB14E0002000903A78334622
:101B500029462046FFF7E8FE304606EBD07104EB3D
:101B600061018CB27F1C38787E2802DC387820280E
:101B7000E2DA00BFBDE8F8872DE9FF4FA1B00746C4
:101B80000D461C46AA462046E21704EB5272D210BC
:101B90002146E31704EB5373DB10A4EBC3030BB133
:101BA000012300E000231A44624302F0FF0B0C2CD7
:101BB00008D0102C06D0182C04D0202C02D025B030
:101BC000BDE8F08F224601A92398FFF71DFA0026F1
:101BD0002FE001A810F806804FF0000923E008F07C
:101BE000800030B11548028829463846FFF702FECA
:101BF00007E02E9828B91248028829463846FFF790
:101C0000F9FD4FEA48604FEA1068681C85B2A5EB01
:101C10000A00A04203D15546781C87B206E009F1BC
:101C2000010000F0FF09B9F1080FD8DB00BF701CFC
:101C3000C6B25E45CDDB00BFC1E700001600002044
:101C4000180000202DE9FF4F82B0064692461F463D
:101C5000DDE90F480020019000254DE0781B401E73
:101C6000C1B20A20FFF702FEBAFBF0F00A21B0FB76
:101C7000F1F201FB1209019850BB781EA84227DD42
:101C8000B9F1000F22D108F0800078B108F001000E
:101C9000A34604EBDB71491001FB0561009088B29B
:101CA000234630220399FFF73FFE0EE008F00100C3
:101CB000A34604EBDB71491001FB0561009088B27B
:101CC000234620220399FFF72FFE13E00120019005
:101CD00008F00100A34604EBDB71491001FB05612C
:101CE000009088B209F13001CAB223460399FFF788
:101CF0001BFE00BF681CC5B2BD42AFDB06B0BDE82D
:101D0000F08F000001490880704700007E00006CE1
:101D100001490880704700008000006C014908807C
:101D2000704700008000006C1CB50121202000F0ED
:101D300073F801208DF804004002009003208DF814
:101D4000050000208DF8060001208DF80700694687
:101D50000A48FFF7EBF84FF400710848FFF751F914
:101D60004FF48060009069460448FFF7DFF84FF4B5
:101D700080610248FFF745F91CBD000000140240D5
:101D800000BFFEE77047000070B5002100230F225E
:101D9000C4781CB3174C246804F4E064C4F5E06410
:101DA000C4F30721C1F10404E3B20A4144789C4022
:101DB000E1B28478144021430C07210E0E4C0578C3
:101DC0006155047804F01F050124AC4005786D11BD
:101DD000AD0005F1E025C5F8004109E0047804F004
:101DE0001F050124AC40054D0678761145F82640C4
:101DF00070BD00000CED00E000E400E080E100E0D8
:101E000002490143024A1160704700000000FA05D0
:101E10000CED00E07047000029B1064A1268024349
:101E2000044B1A6004E0034A12688243014B1A60B3
:101E3000704700003038024029B1064A1268024358
:101E4000044B1A6004E0034A12688243014B1A6093
:101E5000704700003838024029B1064A1268024330
:101E6000044B1A6004E0034A12688243014B1A6073
:101E7000704700004038024029B1064A1268024308
:101E8000044B1A6004E0034A12688243014B1A6053
:101E9000704700002038024029B1064A1268024308
:101EA000044B1A6004E0034A12688243014B1A6033
:101EB000704700004438024029B1064A12680243C4
:101EC000044B1A6004E0034A12688243014B1A6013
:101ED0007047000024380240F0B5002100220024A1
:101EE000022500260223324F3F6807F00C0121B182
:101EF000042905D0082937D105E02E4F076036E0C8
:101F00002D4F076033E02A4F3F1F3F68C7F38056CD
:101F1000274F3F1F3F6807F03F036EB1264FB7FBC7
:101F2000F3F7DFF88CC0ACF1040CDCF800C0CCF3A4
:101F3000881C07FB0CF40CE01E4FB7FBF3F7DFF82F
:101F400070C0ACF1040CDCF800C0CCF3881C07FBBB
:101F50000CF4174F3F1F3F68C7F301477F1C7D00FC
:101F6000B4FBF5F7076002E0124F076000BF00BF47
:101F70000F4F3F6807F0F0010909104F7A5C0768BE
:101F8000D74047600A4F3F6807F4E051890A0B4F7A
:101F90007A5C4768D7408760054F3F6807F4604127
:101FA000490B064F7A5C4768D740C760F0BD000018
:101FB000083802400024F40000127A0000000020DB
:101FC000014988667047000000004742820142EAEA
:101FD0000172014B1A607047843802401CB54FF4FF
:101FE0000070009000208DF8040001208DF807009B
:101FF00069460248FEF79AFF1CBD0000000402403B
:102000001CB54FF40070009001208DF804000020F2
:102010008DF8060003208DF8050001208DF80700DB
:1020200069460248FEF782FF1CBD00000004024022
:102030007CB50546002400200090019000260DB1DB
:10204000022600E000262248006800F0007008B177
:102050000E207CBD1F49098888B26946FEF79CFEA8
:1020600004460CB12046F4E7019800F4802060B3E8
:10207000184800880004184908603720486040204C
:1020800088600020C8604FF480600861084600F056
:102090009BF83720FEF77AF904460CB12046D8E7C2
:1020A0000D48066006200C494860402088600020EA
:1020B000C8604FF480600861084600F085F806208B
:1020C000FEF764F904462046C3E72520C1E7000077
:1020D000142C014028000020D8010020014908608C
:1020E00070470000382C01400146034A106820F078
:1020F000FF00084310607047042C014000210B4B87
:1021000002681A601B1D42681A601A1D116821F0CE
:10211000F701D0E902231A4303691A4343691A43BA
:102120001143024A0832116070470000242C01401C
:1021300001460020034A12680A400AB1012000E06B
:1021400000207047342C01400248006800F0030072
:1021500070470000002C014010B500F08BFC10BD52
:1021600000210A4A116847F6FF629143027D8368A5
:102170001A4343681A43C3681A4303681A4303693E
:102180001A431143014A116070470000042C0140BA
:1021900000200B490860091D0860091D0860091D21
:1021A0000860074924310860091D0860091D08609E
:1021B00004480349383108600020091D0860704751
:1021C000002C0140FF07C0000021094B02681A6083
:1021D0001A1D11686FF30A01D0E901231A43C3687D
:1021E0001A4303691A431143014A121D11607047D3
:1021F000082C01400149086070470000002C014094
:1022000070B590B004460E46154600BF1A48FEF75A
:10221000AFFA0028FAD11848FEF7DCF94FF0006059
:1022200001901648029003940495002005900690B2
:102230004FF4806007908000089080000990002093
:102240000A904FF440300B9004200C9003200D9026
:102250004FF400000E9080100F9001A90648FEF781
:10226000E1FA20210448FEF778FA01210248FEF73E
:10227000A5F910B070BD000058640240802C0140E8
:1022800070B50446002516480078032802D127259A
:10229000284670BD1248007838B1114800780128EE
:1022A00003D00F480078022817D1B4F5805F02D11F
:1022B00027252846EDE7E0B2FFF7BAFE054665B9E7
:1022C0000848006820F4C0500649086008460068C5
:1022D000204308600846006808602846D9E70000E7
:1022E00024000020042C0140F0B50146002000220B
:1022F000BE4B1B7881F85630BD4B1B88A1F854307B
:10230000BC4B1B681A0E93090B70C2F383034B700E
:1023100002F003038B70B74B1B68C3F30742CA700C
:10232000B44B1B88C3F307220A71B24B1A784A7167
:102330005B681A0E1301CB80AE4B5B68C3F3074298
:10234000CB8843EA1213CB8002F00F030B72A94B28
:102350009B88C3F30722D3094B72C2F380138B729D
:10236000C2F34013CB72C2F300130B7300234B7301
:102370009E4B1B783BB19D4B1B78012B03D09B4B95
:102380001B78032B4FD193071B0D0B61994B1A79C7
:102390000B6943EA82030B61964B9B681A0E0B692B
:1023A00043EA92130B61C2F3C2030B7502F00703F9
:1023B0004B75904B9B68C3F3074253098B75C2F36F
:1023C0008203CB7593075B0F0B768A4B1B89C3F394
:1023D00007220B7E43EAD2130B760B695B1C0024A9
:1023E000C1E912340B7E9B1C012404FA03F3DC17B1
:1023F000D1E91256A5FB037C06FB03C305FB04339E
:10240000C1E912730C7A0123A3400B650024D1E9C2
:1024100012650B6DA6FB037C05FB03C306FB0433AF
:10242000C1E912732EE0714B1B78022B2AD1714B3C
:102430001A7993069B0A0B616E4B9B681A0E0B6907
:1024400043EA02230B616B4B9B68C3F307420B69A2
:1024500013430B61674B1B89C3F307220B695B1C9A
:102460004FF40074A3FB04464FF480630025A4FBE3
:10247000037C06FB03C304FB0533C1E912734FF46D
:1024800000730B65C2F3801301F8193F93065B0ECE
:102490004B70584B1A7A4B7843EAD2134B7002F0C8
:1024A0007F038B70534BDB681A0ED309CB70C2F3DA
:1024B00041130B71C2F382034B7193071B0F8B7196
:1024C0004C4BDB68C3F307428B7943EA92138B7161
:1024D000C2F34013CB7100230B7202F001034B7265
:1024E000444B9B89C3F30722D3098B72C2F3801339
:1024F000CB72C2F340130B73C2F300134B73C2F3DE
:1025000081038B7302F00303CB733A4B1A7B53089E
:102510000B7401234B74384B1B681A0ECA7419399B
:10252000354B1B68C3F307421402CC85324B1B8822
:10253000C3F30722CB8D1343CB852F4B1A78140698
:102540000C635B681A0E0B6B43EA02440C632A4B64
:102550005B68C3F307420B6B43EA02240C63264B10
:102560009B88C3F307220B6B13430B63224B1A792F
:1025700034235A54204B9B681A0E35235A541E4B51
:102580009B68C3F3074214068C631B4B1B89C3F380
:1025900007228B6B43EA02448C63174B1A7A8B6BCE
:1025A00043EA02248C63144BDB681A0E8B6B1343D3
:1025B0008B63114BDB68C3F307423C235B5C43EA4C
:1025C00012143C235C5413071C0DCC870A4B9B89C7
:1025D000C3F30722CB8F1343CB87074B1A7B5408D7
:1025E00040235C54012441235C54F0BD24000020AE
:1025F0002800002004020020140200203EB5002420
:10260000002501214448FFF707FC0121C802FFF71C
:1026100043FC0121C802FFF74FFC4FF4F850019032
:1026200002208DF808008DF8090000208DF80A00BE
:1026300001208DF80B0001A93848FEF777FC042033
:10264000019001A93648FEF771FC0C22082133489D
:10265000FEF7B4FC0C2209213048FEF7AFFC0C2237
:102660000A212E48FEF7AAFC0C220B212B48FEF76C
:10267000A5FC0C2211462948FEF7A0FC0C220221E1
:102680002748FEF79BFC00214FF40060FFF714FC85
:10269000FFF77EFD31208DF8000000208DF801004D
:1026A0008DF8020001208DF803006846FFF76CFBEF
:1026B00000F0EEF8044614B900F038F804461CB9EE
:1026C0001848FFF711FE044634B91649B1F8541002
:1026D000080400F073FD044624B94FF40060FFF7CE
:1026E000CFFD04461CB110480078032812D10D48D4
:1026F00090F8560020B10B4890F85600012801D1FF
:10270000022500E000252846FFF7EEFC002000F03F
:102710006DFD044620463EBD0C004000000802400E
:10272000000C0240280200202400002038B50024BC
:1027300001200090FFF708FD10B92524204638BD80
:102740004D480078042824D000204C49086002201D
:102750004860C02088600020C8604FF48060086135
:102760000846FFF731FDFDF743FE04460CB1204655
:10277000E5E743480068434908604148001D006898
:1027800048603F480830006888603D480C30006869
:10279000C8603948007858B137480078012807D018
:1027A00035480078062803D033480078022816D12F
:1027B00000203249086003204860402088600020E3
:1027C000C8604FF4806008610846FFF7FDFC694669
:1027D0000320FDF753FE04460CB12046AFE7264820
:1027E0000078032816D1BDF80000000423490860D2
:1027F00003204860402088600020C8604FF480605B
:1028000008610846FFF7E0FCFDF7F2FD04460CB155
:10281000204694E71848007804282AD0BDF8000024
:1028200019490860BDF80000000414490860092037
:102830004860C02088600020C8604FF48060086154
:102840000846FFF7C1FCFDF7D3FD04460CB1204656
:1028500075E70B4800680D4908600948001D0068CD
:102860004860074808300068886005480C300068F8
:10287000C860002063E7000024000020D801002089
:10288000142C014014020020280000200402002023
:102890002DE9F0470027002400260025A046A14688
:1028A00076206E4908750020086048608860C8601E
:1028B00008610846FFF754FC0320FFF79BFC6848BB
:1028C000006840F480706649086000BF12E0002094
:1028D0006449086048608860C8604FF4806008619F
:1028E0000846FFF771FCFDF739FD044604B903E023
:1028F000781CC7B24A2FEADB00BF14B12046BDE8FE
:10290000F0874FF4D5705749086008204860402090
:1029100088600020C8604FF4806008610846FFF7B7
:1029200053FCFDF7F5FD044624B901204E4908701B
:102930004FF0804900204B49086037204860402014
:1029400088600020C8604FF4806008610846FFF787
:102950003BFC3720FDF71AFD0446002C4CD135E036
:1029600000204049086037204860402088600020EF
:10297000C8604FF4806008610846FFF725FC3720E7
:10298000FDF704FD04460CB12046B8E7374849EA94
:1029900000003449086029204860402088600020F9
:1029A000C8604FF4806008610846FFF70DFCFDF732
:1029B00049FD04460CB12046A1E7294810300668BD
:1029C000012080EAD67080F001086D1CB8F1000F7C
:1029D00003D14FF6FF708542C2D34FF6FF70854298
:1029E00002D31B2420468AE706F08040061E33D01F
:1029F00002201D4908702FE01DE01D48194908609C
:102A000001204860402088600020C8604FF480604A
:102A100008610846FFF7D8FBFDF714FD04460CB12A
:102A200020466CE70E4810300668012080EAD67018
:102A300080F001086D1CB8F1000F03D14FF6FF7054
:102A40008542DAD34FF6FF70854202D31B2420461D
:102A500055E7032004490870204650E7C0010020D4
:102A6000042C0140D8010020240000200000108028
:102A70000080FF8010B54FF48070FFF759FB78B3EA
:102A80004C480078012814D100204B4908600C20E4
:102A90004860402088600020C8604FF48060086172
:102AA0000846FFF791FB0C20FDF770FC43490870C6
:102AB00002E00020414908704148006840F48070FD
:102AC0003F490860081D00684CF23A3188433C4990
:102AD000091D086001203B4908703848007810BD86
:102AE000FFE70220FFF724FB78B10220FFF7F6FA98
:102AF0003348001D00684CF23A3188433049091DC3
:102B0000086002202D490870E9E70820FFF710FB54
:102B100078B10820FFF7E2FA2948001D00684CF25E
:102B20003A3188432649091D08600420234908706A
:102B3000D5E72020FFF7FCFA78B12020FFF7CEFA86
:102B40001F48001D00684CF23A3188431C49091D9A
:102B50000860062019490870C1E71020FFF7E8FA5D
:102B600078B11020FFF7BAFA1548001D00684CF242
:102B70003A3188431249091D086005200F49087041
:102B8000ADE74FF40070FFF7D3FA80B14FF4007057
:102B9000FFF7A4FA0A48001D00684CF23A31884356
:102BA0000749091D086007200449087097E70020BD
:102BB00095E700002D000020D80100202E00002005
:102BC000382C01402F0000202DE9F84F8146174690
:102BD00098460A9C4FF0000AD3464D464FF0FF3608
:102BE000B9F1000F02D12620BDE8F88F00208649F8
:102BF000086086480078022805D10402780A40EA75
:102C0000C8574FEA68280020814988604860401E04
:102C10000860012048610020C86008610846FFF78D
:102C20006DFA79481838006800F0007008B10E207D
:102C3000DAE7002C21DDB4F5006F1EDC601E2040B9
:102C4000D8B9204602F0EEFA0090724804601020D5
:102C500070494860402088600020C8604FF4806060
:102C600008610846FFF7B0FA1020FDF78FFB824697
:102C7000BAF1000F03D05046B6E72620B4E700981B
:102C8000000163498860084644604FF0FF300860E7
:102C9000012048610220C860002008610846FFF753
:102CA0002DFA5C48076011205A494860402088602E
:102CB0000020C8604FF4806008610846FFF784FA7E
:102CC0001120FDF763FB8246BAF1000F01D0504698
:102CD0008AE75148007800285CD1FDF75FFA18E0D8
:102CE0004FF40040FFF724FA78B14FF0000B06E0F4
:102CF00045485430006845F82B000BF1010BBBF13F
:102D0000080FF5D32035454E03E00EB904206BE7DC
:102D1000761E3D480830006840F22A6108400028CD
:102D2000DED00820FFF704FA20B10820FFF7D6F91B
:102D3000042059E70220FFF7FBF920B10220FFF73A
:102D4000CDF9022050E72020FFF7F2F920B1202032
:102D5000FFF7C4F9062047E74FF40070FFF7E8F9E2
:102D600028B14FF40070FFF7B9F907203CE704E001
:102D700025485430006828602D1D4FF40010FFF7DF
:102D8000D7F90028F4D1FDF70BFA40F2FF50FFF716
:102D9000A5F936E020480078012832D100202049EA
:102DA00008702049087020490870174810300068E2
:102DB00040F22A3108431449103108601248006873
:102DC00040F0080010490860002221464846FFF7FD
:102DD00017FA00E0761E1548006800F0006038B968
:102DE0001148007820B90E48007808B9002EF1D1BA
:102DF0000EB90420F8E60A48007810B1084890F8A7
:102E000000A05046F0E600002C2C014024000020D9
:102E1000EC010020D80100202C000020FFFF7F00E3
:102E20002E0000202D0000202F0000200064024012
:102E30002DE9FE4F83460C46914600200290002665
:102E400025462C46700240EAD5566D020BF0030071
:102E5000F0B14FF0000A18E04FF4007000904FEA14
:102E60004A20471946EBE0733A461648FFF7ACFE96
:102E700002904FF4007213495846FDF707FA0BF51C
:102E8000007B0AF1010000F0FF0ACA45E4DB16E00E
:102E9000B9F1010F09D14FF400702A463346009072
:102EA0005846FFF791FE029009E04FF400702A4661
:102EB0003346CDE90009584600F006F80290029822
:102EC000BDE8FE8F800200202DE9FF5F174698467F
:102ED000DDE90E464FF00009CA464FF0FF35AC4918
:102EE000009808600020AB490860AB4800780228D1
:102EF00005D10402780A40EAC8574FEA6828002042
:102F0000A64988604860401E086001204861002092
:102F1000C86008610846FFF7F1F89E481838006855
:102F200000F0007018B10E2004B0BDE8F09F002C36
:102F300021DDB4F5006F1EDC601E2040D8B92046AC
:102F400002F070F983469648046010209449486066
:102F5000402088600020C8604FF480600861084607
:102F6000FFF732F91020FDF711FA8146B9F1000F91
:102F700003D04846D8E72620D6E7012E71D906FBB4
:102F800004F0B0F1007F01D32620CDE74FEA0B100B
:102F90008249886006FB04F048604FF0FF3008600B
:102FA000012048610220C860002008610846FFF740
:102FB000A5F87B4807601220794948604020886066
:102FC0000020C8604FF4806008610846FFF7FCF8F5
:102FD0001220FDF7DBF98146B9F1000F01D0484618
:102FE000A2E77048007800287ED1FDF7D7F81EE0F0
:102FF0004FF40040FFF79CF8A8B14FF0000A08E03A
:103000006448543000686249096841F82A000AF1AE
:10301000010ABAF1080FF3D35D48006820305C491B
:103020000860614D03E00DB904207DE76D1E59482D
:103030000830006840F22A3108400028D8D0082023
:10304000FFF776F820B10820FFF748F804206BE777
:103050000220FFF76DF828B10220FFF73FF80220A9
:1030600062E792E02020FFF763F820B12020FFF70D
:1030700035F8062058E74FF40070FFF759F828B1EB
:103080004FF40070FFF72AF807204DE70AE04148A7
:10309000543000683E49096808603D480068001DDA
:1030A0003B4908604FF40010FFF742F80028EED1CA
:1030B0004FF48070FFF73CF820B33748007838B100
:1030C00035480078012803D033480078022819D108
:1030D0000020334908600C204860402088600020B0
:1030E000C8604FF4806000E013E008610846FFF715
:1030F0006BF80C20FDF74AF98146B9F1000F01D0B9
:10310000484611E7FDF74CF840F2FF50FEF7E6FFA6
:103110003BE024480078012837D10020234908707B
:1031200001202349087000202249087019481030F6
:10313000006840F22A3108431649103108601548EA
:10314000006840F008001349086006FB04F1002203
:103150000098FFF755F800E06D1E1748006800F072
:10316000006008B9002DF7D10DB90420DCE600BFDE
:103170001048007818B90D4800780028F8D00B489E
:10318000007810B1094890F800904846CCE600005D
:10319000300000202C2C014024000020EC010020F5
:1031A000D80100202C000020FFFF7F002E0000200F
:1031B0002D0000202F0000200064024010B50446BE
:1031C00009480460072008494860402088600020C2
:1031D000C8604FF4806008610846FEF7F5FF0720DD
:1031E000FDF7D4F810BD0000D801002001460020F2
:1031F000012900D011B9024B197000E02620704758
:103200002C0000202DE9FF5F86B017469846149DDC
:1032100000260020059004900024814603908246F9
:1032200002900195DDF818B0DDF818B0BBF1000F81
:1032300003D126200AB0BDE8F09F0020C9490860EC
:10324000C94988604860401E08600120486100202C
:10325000C86008610846FEF751FFC2481838006888
:1032600000F0007008B10E20E4E7C04800780228A2
:1032700005D10502780A40EAC8574FEA6828002DB0
:103280001FDDB5F5006F1CDC681E2840C8B9284654
:1032900001F0C8FF0590B64805601020B4494860A9
:1032A000402088600020C8604FF4806008610846B4
:1032B000FEF78AFF1020FDF769F806461EB130467A
:1032C000B8E72620B6E7AB4800880004A8490860A4
:1032D0000D204860402088600020C8604FF4806066
:1032E00008610846FEF770FF0D20FDF74FF806460F
:1032F0000EB130469EE79B481838006803904FF0A7
:10330000FF341CE0641E9B48008800049849086054
:103310000D204860402088600020C8604FF4806025
:1033200008610846FEF750FF0D20FDF72FF806460E
:103330000EB130467EE78B4818380068039003983A
:1033400000F4807008B9002CDCD10CB9292071E799
:103350008748076018208649486040208860002020
:10336000C8604FF4806008610846FEF72DFF182002
:10337000FDF70CF806460EB130465BE700207E49AB
:1033800008700598000178498860084645604FF04C
:10339000FF300860012048610020C86008610846CD
:1033A000FEF7ACFE4FF0FF347448007800287ED161
:1033B000FCF7F4FE45E04FF48040FEF7B9FED8B3C9
:1033C0000198A0EB0900202822D20198A0EB090067
:1033D00000F0030020B90198A0EB0900800804E088
:1033E0000198A0EB09008008401C02904FF0000AF1
:1033F0000AE05C495431DBF8000008600AF1010A78
:103400000BF1040B09F1040902988245F1D310E095
:103410004FF0000A06E05BF82A0052495431086078
:103420000AF1010ABAF1080FF5D30BF1200B09F1EB
:1034300020096FF0404404E0FFE70CB90420F9E6EE
:10344000641E48480830006840F21A6108400028AD
:10345000B1D00820FEF76CFE20B10820FEF73EFE3A
:103460000420E7E60220FEF763FE20B10220FEF70B
:1034700035FE0220DEE61020FEF75AFE20B11020B5
:10348000FEF72CFE0520D5E64FF40070FEF750FE47
:1034900030B14FF40070FEF721FE0720CAE606E0C7
:1034A000FCF77EFE40F2FF50FEF718FE41E0334885
:1034B000007801283DD10020314908702E4908705C
:1034C0003049087027481030006840F21A3108432C
:1034D000244910310860402229460698FEF790FEE4
:1034E0002048006840F008001E49086000E0641EA3
:1034F0002548006800F0006008B9002CF7D11CB91D
:10350000FFF77CF8042095E64FF0FF3400E0641EDE
:103510001C48007820B91A48007808B9002CF6D168
:103520000CB9042086E61648007810B114480078DB
:1035300080E640F2FF50FEF7D1FD04A8FEF750F8F8
:10354000064603E004A8FEF74BF806463EB99DF890
:1035500010000728F6D09DF810000628F2D030465B
:1035600068E600002C2C0140EC0100202400002023
:10357000D8010020280000202D0000202C00002071
:103580002E0000202F000020006402402DE9FE4F95
:1035900081460C46924600200290002625462C4685
:1035A000700240EAD5566D0209F00300F0B14FF009
:1035B000000B18E04FF4007249461948FCF766FE0C
:1035C0004FF4007000904FEA4B20471946EBE07330
:1035D0003A461348FFF716FE029009F500790BF101
:1035E000010000F0FF0BD345E4DB16E0BAF1010F58
:1035F00009D14FF400702A46334600904846FFF741
:1036000001FE029009E04FF400702A463346CDE9EE
:10361000000A484600F006F802900298BDE8FE8FC6
:10362000800200202DE9FF5F84B0DDE9124700260B
:10363000002003900290002580468146019007FB00
:1036400004FBDDF810A0DDF810A0BAF1000F03D1E3
:10365000262008B0BDE8F09F0020DC490860DC4966
:1036600088604860401E0860012048610020C860F2
:1036700008610846FEF742FDD4481838006800F09B
:10368000007008B10E20E4E7D2480078022808D183
:103690000402DDE90601400A40EAC1504912CDE9C1
:1036A0000601002C1FDDB4F5006F1CDC601E2040FD
:1036B000C8B9204601F0B6FD0390C7480460102049
:1036C000C5494860402088600020C8604FF4806091
:1036D00008610846FEF778FD1020FCF757FE064605
:1036E0001EB13046B5E72620B3E7012F6FD907FB9F
:1036F00004F0B0F1007F01D32620AAE7B548007896
:1037000038B1B4480078012803D0B24800780228C4
:103710002DD1B24800880004AF49086037204860C6
:10372000402088600020C8604FF48060086108462F
:10373000FEF74AFD3720FCF729FE06460EB130465B
:1037400087E7A54807601720A349486040208860A4
:103750000020C8604FF4806008610846FEF734FD21
:103760001720FCF713FE06460EB1304671E79A4962
:103770000698086019204860402088600020C860D2
:103780004FF4806008610846FEF71EFD1920FCF723
:10379000FDFD06460EB130465BE7039800018C49FB
:1037A000886007FB04F048604FF0FF30086001209C
:1037B00048610020C86008610846FEF79FFC884801
:1037C0000078002874D1451EFCF7E8FC42E0E4E0F4
:1037D0004FF48040FEF7ACFCB8B3ABEB08002028F8
:1037E0001FD2ABEB080000F0030018B9ABEB0800E8
:1037F000800803E0ABEB08008008401C01904FF00C
:1038000000090AE071495431DAF80000086009F152
:1038100001090AF1040A08F1040801988145F1D36D
:1038200010E04FF0000906E05AF8290067495431CA
:10383000086009F10109B9F1080FF5D30AF1200A6E
:1038400008F120086FF0404504E0FFE70DB90420BF
:10385000FFE66D1E5D480830006840F21A310840EE
:103860000028B5D00820FEF763FC20B10820FEF741
:1038700035FC0420EDE60220FEF75AFC20B10220C0
:10388000FEF72CFC0220E4E61020FEF751FC20B1EC
:103890001020FEF723FC0520DBE64FF40070FEF756
:1038A00047FC30B14FF40070FEF718FC0720D0E65B
:1038B0002CE04FF48070FEF73BFC00B345480078E5
:1038C00038B144480078012803D0424800780228E3
:1038D00015D10020404908600C20486040208860D5
:1038E0000020C8604FF4806008610846FEF76CFC59
:1038F0000C20FCF74BFD06460EB13046A9E6FCF75E
:103900004FFC40F2FF50FEF7E9FB46E034480078F8
:10391000012842D100203349087001203249087043
:1039200000203249087029481030006840F21A31EE
:10393000084326491031086007FB04F1402204982F
:10394000FEF75EFC2148006840F008001F4908604F
:103950004FF0FF3500E06D1E2548006800F0006064
:1039600008B9002DF7D11DB9FEF748FE042070E616
:103970004FF0FF3500E06D1E1C48007820B9194853
:10398000007808B9002DF6D10DB9042061E615487C
:10399000007810B1134800785BE640F2FF50FEF764
:1039A0009DFB02A8FDF71CFE064603E002A8FDF7FA
:1039B00017FE06463EB99DF808000728F6D09DF888
:1039C00008000628F2D0304643E600002C2C0140C7
:1039D000EC01002024000020D80100202800002055
:1039E0002C0000202E0000202D0000202F000020A1
:1039F0000064024000B587B001210220FEF70CFAF6
:103A000001210803FEF748FA052203212848FDF7A3
:103A1000D5FA052204212648FDF7D0FA05221146E1
:103A20002348FDF7CBFA3820059002208DF81800C6
:103A300000208DF81A0003208DF8190001208DF860
:103A40001B0005A91A48FDF771FA01210803FEF7CA
:103A500033FA00214FF48050FEF72EFA0020ADF823
:103A600000004FF48270ADF802000020ADF80400B1
:103A70000220ADF806000120ADF808004002ADF8C4
:103A80000A003820ADF80C000020ADF80E00072029
:103A9000ADF810006946074800F061F801210548BB
:103AA00000F03AF8FF2000F007F807B000BD000072
:103AB000000402400030014010B5044600BF02215E
:103AC0000A4800F03EF80028F9D02146074800F0E7
:103AD00044F800BF0121054800F033F80028F9D070
:103AE000024800F037F8C0B210BD000000300140BD
:103AF00010B50446074800884FF6C77108400549CD
:103B0000088008460088204308800121014800F011
:103B100003F810BD0030014021B1028842F040029C
:103B2000028004E002884FF6BF731A40028070479B
:103B30001AB183880B43838002E083888B438380A0
:103B400070470246002013890B400BB1012000E0B2
:103B5000002070470146888970478181704710B501
:103B60000022028802F441520B884C8823438C883F
:103B70002343CC8823430C8923434C8923438C89DA
:103B80002343CC8923431A430280838B4FF2FF7473
:103B9000234083830B8A038210BD70470CB500203D
:103BA000019000903448006840F480303249086049
:103BB00000BF3148006800F4003000900198401CBC
:103BC0000190009818B90198B0F5A04FF1D12A489A
:103BD000006800F4003010B10120009001E00020E6
:103BE00000900098012846D123484030006840F0FA
:103BF00080502149403108602048006840F440402E
:103C00001E4908601C48083000681B4908310860DC
:103C10000846006840F4004008600846006840F428
:103C2000A05008601648091F0860081F006840F08F
:103C30008070091F086000BF0F48006800F0007026
:103C40000028F9D040F205700E4908600A48083093
:103C5000006820F003000849083108600846006841
:103C600040F00200086000BF03480830006800F020
:103C70000C000828F8D10CBD00380240007000404C
:103C800008544007003C0240042808D14FF0E021CE
:103C9000096941F004014FF0E022116107E04FF0A3
:103CA000E021096921F004014FF0E0221161704721
:103CB0007047000010B504466FF00400FFF7E4FF02
:103CC000E11704EB5171C1F3C701074A11701046A7
:103CD000007800EB4001C1EBC0104FF6FF7101EA24
:103CE000C0000249088010BD100000201200002012
:103CF00010B51548006840F4700013490860134877
:103D0000006840F001001149086000200F490831A7
:103D100008600E4800680E4908400C4908600D48CC
:103D2000091D0860081F006820F48020091F086032
:103D3000002006490C310860FFF730FF4FF00060AB
:103D400001498039086010BD88ED00E0003802406C
:103D5000FFFFF6FE1030002400B59DB0012108469B
:103D6000FEF76AF80F200790002008906020099065
:103D700000200A900B900C900D901520009001905F
:103D800005200290002003900490059006900620E4
:103D90000E9000200F901090102011900020129093
:103DA00014901390159016904FF4805017900020A7
:103DB00018904FF48040199000201A9007A81B908B
:103DC000CDF870D00EA8FCF753FF01210620FCF7B8
:103DD00035FF1DB000BD00001CB501217820FEF7A5
:103DE0001BF801210220FEF717F80C220E21624871
:103DF000FDF7E4F80C220F215F48FDF7DFF80C22F5
:103E000000215D48FDF7DAF80C2201215A48FDF740
:103E1000D5F80C2207215948FDF7D0F80C220821CB
:103E20005648FDF7CBF80C2209215448FDF7C6F897
:103E30000C220A215148FDF7C1F80C220B214F48F2
:103E4000FDF7BCF80C2211464C48FDF7B7F80C22E0
:103E50000D214A48FDF7B2F80C220E214748FDF724
:103E6000ADF80C220F214548FDF7A8F80C220821D7
:103E70004148FDF7A3F80C2209213F48FDF79EF8C1
:103E80000C220A213C48FDF799F80C2204213A48FB
:103E9000FDF794F80C2205213748FDF78FF80C2226
:103EA00011463748FDF78AF80C2211463548FDF7D0
:103EB00085F84CF23370009002208DF80400002049
:103EC0008DF8060003208DF8050001208DF807000D
:103ED00069462948FDF72AF84FF6807000900220C5
:103EE0008DF8040000208DF8060003208DF80500F1
:103EF00001208DF8070069462048FDF717F84FF4B8
:103F00008050009002208DF8040000208DF80600FB
:103F100003208DF8050001208DF807006946184838
:103F2000FDF704F84FF48050009002208DF8040053
:103F300000208DF8060003208DF8050001208DF883
:103F4000070069460F48FCF7F1FF4FF4004000906E
:103F500001208DF8040000208DF8060002208DF865
:103F6000050001208DF8070069460748FCF7DEFFD1
:103F70000120064908601CBD000C024000100240F0
:103F8000001402400018024000040240BC8240427B
:103F900010B5FFF721FFFFF7DFFE322001F07AFBBB
:103FA000D320FDF7AFFEA4480088A4498880A2482A
:103FB00000888880A04800888880084680884FF65E
:103FC000FF7101EA00209D498880084680884FF0F3
:103FD000D841B1F880100843984988800846818804
:103FE00097A000F041FCFF20FDF78CFEFF20FDF7BD
:103FF00089FE052001F04EFBFF20FDF783FEFF2028
:10400000FDF780FEFF20FDF77DFEFF20FDF77AFE25
:104010000A2001F03FFBB020FDF774FE0020FDF701
:1040200077FEB320FDF76EFE0220FDF771FE002043
:10403000FDF76EFE0020FDF76BFE0020FDF768FE29
:10404000C020FDF75FFE1320FDF762FE3B20FDF769
:104050005FFE0020FDF75CFE0020FDF759FE00200A
:10406000FDF756FE0120FDF753FE0020FDF750FE40
:104070004320FDF74DFEC120FDF744FE0820FDF76B
:1040800047FE1B20FDF744FE0820FDF741FE0820F7
:10409000FDF73EFEC420FDF735FE1120FDF738FE8A
:1040A0000120FDF735FE7320FDF732FE0120FDF7FC
:1040B0002FFEC620FDF726FE0020FDF729FEC820B2
:1040C000FDF720FE0F20FDF723FE0520FDF720FE63
:1040D0001420FDF71DFE5C20FDF71AFE0320FDF7FE
:1040E00017FE0720FDF714FE0720FDF711FE102034
:1040F000FDF70EFE0020FDF70BFE2320FDF708FE66
:104100001020FDF705FE0720FDF702FE0720FDF752
:10411000FFFD5320FDF7FCFD0C20FDF7F9FD1420F9
:10412000FDF7F6FD0520FDF7F3FD0F20FDF7F0FD8F
:104130002320FDF7EDFD0020FDF7EAFD3520FDF71A
:10414000E1FD0020FDF7E4FD4420FDF7DBFD00204C
:10415000FDF7DEFD0120FDF7DBFDD020FDF7D2FDF0
:104160000720FDF7D5FD0720FDF7D2FD1D20FDF747
:10417000CFFD0320FDF7CCFDD120FDF7C3FD0320CB
:10418000FDF7C6FD5B20FDF7C3FD1020FDF7C0FD68
:10419000D220FDF7B7FD0320FDF7BAFD2420FDF77F
:1041A000B7FD0420FDF7B4FD2A20FDF7ABFD00208C
:1041B000FDF7AEFD0020FDF7ABFD0120FDF7A8FDEA
:1041C0003F20FDF7A5FD2B20FDF79CFD0020FDF70E
:1041D0009FFD0020FDF79CFD0120FDF799FDDF20EC
:1041E000FDF796FD3620FDF78DFD0020FDF790FDD3
:1041F000C020FDF787FD1320FDF78AFD3A20FDF76B
:1042000081FD5520FDF784FD1120FDF77BFD9620F3
:1042100001F040FA2920FDF775FD1E2001F03AFA61
:104220002C20FDF76FFD0020FDF7C0FA4FF6FF7060
:10423000FDF798FA10BD00008000006C1A00002005
:10424000204C43442049443A25780D0A00000000E0
:1042500010B540F225511D4800F0BAF810B31B48C4
:1042600000F070F9C4B21A48008800F40040C8B9E0
:104270001748008800F4804060B10A2C03D0002069
:104280001349088020E01248008840F4004010499B
:10429000088019E00D2C06D10D48008840F48040BC
:1042A0000B49088010E00A480088C0F30D00094956
:1042B0000C5407480088401C0549088008460088BF
:1042C000C72801DD0020088010BD0000001001405B
:1042D00014000020F800002010B588B00446012129
:1042E0000846FDF799FD01211020FDF7D5FD0722B5
:1042F00009212448FCF762FE07220A212148FCF725
:104300005DFE4FF4C060069002208DF81C008DF811
:104310001D0000208DF81E0001208DF81F0006A949
:104320001848FCF703FE02940020ADF80C00ADF82D
:104330000E00ADF81000ADF814000C20ADF812001E
:1043400002A9114800F094F801210F4800F027F865
:1043500040210D4800F01AF8012240F225510A4888
:1043600000F060F825208DF8040003208DF805008A
:104370008DF8060001208DF8070001A8FDF704FD67
:1043800008B010BD000002400010014001F40072AE
:10439000B2F5007F00D100BFCA430280704721B14F
:1043A000828942F40052828104E082894DF6FF73D3
:1043B0001A408281704702460020B1F5007F00D18B
:1043C00000BF13880B400BB1012000E000207047B4
:1043D00070B50246002400230025002040F66A162E
:1043E000B14200D100BFC1F3421501F01F03012605
:1043F00006FA03F3012D02D19689334006E0022D1F
:1044000002D1168A334001E0968A33400C1201260D
:1044100006FA04F41688344013B10CB1012000E010
:10442000002070BDF0B503460024002600250020C2
:1044300040F66A17B94200D100BF1846C1F34214D2
:1044400001F01F06012707FA06F5012C01D10C30F7
:1044500004E0022C01D1103000E014301AB10768DA
:104460002F43076002E00768AF430760F0BD00001C
:104470002DE9FF4705460E460024A14600BFA04691
:10448000B08900B100BF2C8A24F44054F088044362
:104490002C82AC8941F20C608443B0883189084396
:1044A000718908430443AC81AC8A24F44074B08918
:1044B0000443AC826846FDF70FFD2048854202D0D8
:1044C0001F48854202D1DDF80C9001E0DDF808902C
:1044D000A88900F4004040B109EBC90000EB0910C5
:1044E00031684900B0FBF1F707E009EBC90000EBC8
:1044F000091031688900B0FBF1F76420B7FBF0F0D8
:1045000004012009642101FB1078A88900F400400F
:1045100040B1322000EBC800B0FBF1F000F0070022
:10452000044308E0322000EB08106421B0FBF1F0F6
:1045300000F00F0004432C81BDE8FF87001001400C
:104540000014014001468888C0F308007047C1F399
:1045500008028280704700BFFEE770B505460E4630
:10456000032000F03DF9044615B144F0030401E0D6
:1045700024F003042146032000F04CF9022000F04F
:104580002FF9044616B144F0030401E024F00304BB
:104590002146022000F03EF970BD70B5044604F0DB
:1045A00007042F2000F01CF9054625F0070545EA11
:1045B00004012F2000F02EF9302000F011F90546FB
:1045C00025F0070545EA0401302000F023F970BD0D
:1045D00070B504460D4604F03F0405F03F050CB9E4
:1045E00044F040040DB945F040052146342000F068
:1045F00011F945F48071352000F00CF970BD70B5EB
:1046000004460D4604F0030405F00305E00040EA0B
:104610004511042000F0FEF870BD00001CB501211A
:104620000620FDF7F9FB4FF44050009002208DF872
:10463000040000208DF8060003208DF805000120FD
:104640008DF8070069463248FCF770FC4C2000905A
:1046500002208DF8040000208DF8060003208DF85C
:10466000050001208DF8070069462A48FCF75EFC2A
:1046700005220C212648FCF7A1FC05220D21244827
:10468000FCF79CFC052203212248FCF797FC05223D
:1046900006212048FCF792FC062202211D48FCF767
:1046A0008DFCFCF7E7FE0021084600F0B3F8044655
:1046B0000CB101201CBD1B21012000F0ABF84FF410
:1046C000D871022000F0A6F86C21032000F0A2F8B7
:1046D0000021062000F09EF810212B2000F09AF80F
:1046E0004FF480712F2000F095F84FF48071302046
:1046F00000F090F80221312000F08CF808210A2007
:1047000000F088F808210E2000F084F80020D1E79E
:1047100000040240000802402DE9F04105460E4623
:104720001746022000F05CF8044615B144F00C0472
:1047300001E024F00C042146022000F06BF82C204C
:1047400000F04EF8044615B144F0330401E024F0C3
:10475000330421462C2000F05DF81EB1052000F046
:104760000EF802E0002000F00AF81FB10720FFF762
:1047700014FF02E00020FFF710FFBDE8F08170B5E4
:10478000044604F007042F2000F02AF8054625F01F
:10479000700545EA04112F2000F03CF8302000F0AD
:1047A0001FF8054625F0700545EA0411302000F099
:1047B00031F870BD70B506460D4600240EB144F0C8
:1047C00001041DB144F0020444F0140421463220D7
:1047D00000F020F82146332000F01CF870BD0000E6
:1047E0000146024830F811007047000038000020F0
:1047F00010B5044604F03F040CB944F040042146CF
:10480000362000F007F844F48071372000F002F8F9
:1048100010BD000070B505460C46FCF783FE342041
:10482000FCF74EFEFCF7B6FE08B1012070BDC4F3E4
:10483000002141EA4501C8B2FCF742FEFCF7AAFE9E
:1048400008B10220F2E7E0B2FCF73AFEFCF7A2FE64
:1048500008B10320EAE7FCF781FE024820F8154082
:104860000020E3E7380000200FB4054B10B503A982
:10487000044A029800F018F810BC5DF814FB000020
:10488000A9740008F400002002E008C8121F08C143
:10489000002AFAD170477047002001E001C1121FC1
:1048A000002AFBD1704700002DE9FF4F8DB09B46D9
:1048B0000F460446002606E025280BD05A460F99DD
:1048C0009047641C761C20780028F5D111B0304642
:1048D000BDE8F08F0025A8460122984900E0054375
:1048E00014F8013F203B02FA03F00842F7D1207888
:1048F0002E2817D114F8010F45F004052A280ED0F0
:104900006FF02F022078A0F1300109290AD808EBB6
:10491000880102EB410100EB0108641CF2E757F843
:10492000048B641C20786C280DD004DC4C2812D039
:104930006A2811D104E074280DD07A280CD10AE03D
:1049400045F4001507E0617845F48015814202D1F5
:10495000641C05F58015641C2278692A45D008DCA2
:10496000002AB3D0582A69D0632A10D0642A08D10B
:104970003BE0702A67D0732A13D0752A5CD0782A5E
:104980005CD010465A460F999047761CD3E017F832
:10499000040B8DF8000000208DF80100E94601208D
:1049A00003E057F8049B4FF0FF3069074FF0000514
:1049B00001D40AE06D1C45450DDA8542FADB19F891
:1049C00005100029F6D106E06D1C8542FCDB19F8C4
:1049D00005100029F8D12E4404E019F8010B5A46BD
:1049E0000F9990476D1EF8D2A5E00A200021CDE96D
:1049F0000801C5F3025002280DD001CFC117031ED4
:104A000071F100030DDA4FF0000CD0EB0C006CEBF1
:104A100001012D2308E0FF1D27F00707F7E8020139
:104A2000EDE72B0504D52B238DF8283001233BE03F
:104A3000EB0739D02023F7E70A2000E010200021FF
:104A4000CDE9080107E01020002145F00405CDE97B
:104A500008014FF00808C5F3025002280FD001CF1B
:104A600000214FF0000A2B071FD5702A0DD0DDE979
:104A700008C38CF0100C5CEA030C0CD015E0FF1D91
:104A800027F00707F7E80201EBE740228DF828201E
:104A90004FF0010A0BE050EA010306D030238DF8F5
:104AA00028308DF8292002239A46582A04D024A2BF
:104AB0000DF120090B9209E026A2F9E7DDE90823B0
:104AC000FBF782FB0B9B9B5C09F8013D50EA01025E
:104AD000F4D1ADEB090020300890680701D44FF005
:104AE00001080899884502DDA8EB010000E00020DC
:104AF0008046002506E00AA85A46405D0F99904777
:104B00006D1C761C5545F6DB04E030205A460F99A3
:104B10009047761CB8F10001A8F10108F5DC05E02A
:104B200019F8010B5A460F999047761C0899481EB0
:104B300008900029F4DC641CC5E600000928010087
:104B40003031323334353637383961626364656603
:104B500000000000303132333435363738394142C5
:104B60004344454600000000F0B593B006460027D8
:104B70004FF49071002003F0F3F904463146684683
:104B800001F00CFE0546BDB9B4B113E021466846FC
:104B900001F089FF05460DB9A07E00B90BE004F1D4
:104BA0001A0002F085F8054605F0F000402801D112
:104BB000781C87B2EAE700BF2146002003F0BEF967
:104BC000384613B0F0BD7CB504460D468020102158
:104BD00003232246CDE90010E6213C20FDF732F800
:104BE000002010232F22E62100905420FCF79CFE89
:104BF0008020102103232A46CDE90010E6215C2005
:104C0000FDF720F87CBD00002DE9FC4104460D466F
:104C100016463A480088A8426DD038490D800846AB
:104C200000883C2190FBF1F78020102102233A46B6
:104C3000CDE90010D2213C20FDF704F8002010231C
:104C40003A22D22100904C20FCF76EFE2B480088BF
:104C50003C2190FBF1F201FB12078020102102237E
:104C60003A46CDE90010D2215420FCF7EBFF00209A
:104C700010232F22D22100906420FCF755FE3C2007
:104C8000B4FBF0F78020102102233A46CDE9001052
:104C9000D2216C20FCF7D6FF002010233A22D2212B
:104CA00000907C20FCF740FE3C20B4FBF0F100FBC0
:104CB00011478020102102233A46CDE90010D2216D
:104CC0008420FCF7BFFF4FF47A70B6FBF0F780202A
:104CD000102104233A46CDE90010D221AA20FCF786
:104CE000B1FF07A010210B46C822CDE90010D22148
:104CF000CA20FCF70EFFBDE8FC810000F000002098
:104D00004B627073000000002DE9F04F97B0002156
:104D10000120FFF722FC002211461046FFF7FCFCA1
:104D200000210120FFF746FD1AE0002010217DA29E
:104D30000B46CDE900210290F02278210A20FCF7F1
:104D400087FEC82000F0A6FC4FF6FF701023F0226B
:104D5000782100900A20FCF75BFDC82000F09AFC47
:104D600075A104A801F01AFD0028DED172A0FFF79A
:104D7000FBFE07461AE00020102172A20B46CDE987
:104D800000210290F02278210A20FCF761FEC82061
:104D900000F080FC4FF6FF701023F0227821009085
:104DA0000A20FCF735FDC82000F074FC002FE2D08B
:104DB0004FF49071002003F0D3F8054640F2FF1144
:104DC000002003F0CDF88146B900002003F0C8F8B8
:104DD00080461AE0002010215EA20B46CDE900219A
:104DE0000290F02278210A20FCF732FEC82000F061
:104DF00051FC4FF6FF701023F022782100900A201A
:104E0000FCF706FDC82000F045FC002DE2D0B9F10A
:104E1000000FDFD0B8F1000FDCD047A104A801F0EB
:104E2000BDFC0646DEB9002417E0DDF838B029469F
:104E300004A801F038FE06460EB9A87E00B90DE0C0
:104E400005F11A0001F034FF064606F0F000402894
:104E500003D148F824B0601C84B2E6E700BF002408
:104E600035A104A801F09AFC064649E058F8241040
:104E700004A800F09DFF294604A801F014FE064690
:104E80000EB9A87E00B93DE036A14846FBF72AFAE4
:104E900005F11A014846FBF70BFA4FF6FF70CE23D7
:104EA000F022BE2100903C20FCF7B2FC0021102231
:104EB00005F11A001346CDE901210090B422BE216C
:104EC0003C20FCF7C5FD611C88B23946FFF77BFE2C
:104ED000484600F04DF88246BAF1040F06D114B1ED
:104EE000601E84B20CE0781E84B209E0BAF1020FB1
:104EF00005D1601C84B2BC4202DB002400E001E06A
:104F0000002EB3D000BF2946002003F017F8494611
:104F1000002003F013F84146002003F00FF817B00B
:104F2000BDE8F08F4D55534943CEC4BCFEBCD0B450
:104F3000EDCEF32100000000303A2F4D5553494388
:104F400000000000C3BBD3D0D2F4C0D6CEC4BCFE98
:104F500021000000C4DAB4E6B7D6C5E4CAA7B0DCC5
:104F600021000000303A2F4D555349432F000000D7
:104F700070B50446204601F09BFE0546402D04D145
:104F8000204603F083FC054605E0214603A0FFF719
:104F90006BFC022500BF00BF284670BD63616E2711
:104FA0007420706C61793A25730D0A0010B50320E6
:104FB00002490874FCF74EFA10BD000051BF0120F1
:104FC00010B5002002490874FCF74CFA10BD00002F
:104FD00051BF01202DE9F04704460D469046994601
:104FE000AD1EE06A00EB153AC5F3C80605F00701EF
:104FF00001208840C7B200BF51460AF1010A20468D
:1050000002F0ACFE10B10120BDE8F08700BF00BF88
:1050100004F13400805D384008B1012000E0002038
:10502000484501D10220EFE704F13400805D78406B
:1050300004F1340188550120E070A8F10100B0F1BD
:10504000000800D1E0E77806000E071EE0D1012736
:10505000701C0646B0F5007FD9D3CDE70146412943
:1050600001DA08467047612903DBA1F12000C0B2D4
:10507000F8E70846F6E7000070B504460D46002044
:10508000E070401E20632946204602F067FE08B10A
:10509000042070BD04F2322002F0C1FC4AF6552112
:1050A000884201D00320F4E704F16A0002F07AFCA0
:1050B00020F07F400D49884201D10020E9E704F14A
:1050C000860002F06FFC20F07F400849884201D141
:1050D0000020DEE7082206A104F1370002F016FEE8
:1050E00008B90120D5E70220D3E70000464154006B
:1050F000455846415420202000000000024600E0B0
:10510000521C107810B110788842F9D1107870478D
:105110002DE9F84F824615461E46DAF80000009049
:10512000DAF8480000F104094FF400720023284621
:105130003146FBF749F807460098B0F80AC06246C6
:1051400000233846FBF740F8834600BF59F8044B6C
:1051500014B90020BDE8F88FA34500D204E0ABEB02
:10516000040B09F10409F1E700BFD9F80000584425
:10517000F0E70246891E9069801E884201D800200F
:1051800070475389D06A01FB0300F9E72DE9F04726
:1051900080460C4604F11A0002F041FC10B10020D8
:1051A000BDE8F087207800F03F00401E00EB800152
:1051B00001EBC0054FF00109002621E01849895D87
:1051C000081902F02CFC0746B9F1000F11D0FF2D91
:1051D0000BD2384601F01EFE824629466D1C38F877
:1051E000110001F017FE824501D00020D8E7B94632
:1051F00005E04FF6FF70874201D00020D0E7761C13
:105200000D2EDBD3207800F0400038B1B9F1000F4B
:1052100004D038F8150008B10020C1E70120BFE72D
:1052200010D500080146002002E04910421CD0B20F
:105230000129FAD170472DE9F04707468A463C68B4
:10524000BAF1000F06D1266916B1A069B04217D88D
:10525000012615E05146384602F09EF98046B8F125
:10526000020F02D20120BDE8F08708F1010008B961
:105270004046F8E7A069404501D94046F3E7564665
:10528000207804282ED101223146204601F0F9FD74
:1052900005460DB1681C08B92846E4E701231A4603
:1052A00029462046FFF796FE8146B9F1020F01D14B
:1052B0000120D8E7B9F1010F02D14FF0FF30D2E75A
:1052C000BAF1000F02D10220F8712CE0F87902281F
:1052D00029D1701C854226D0B868301AB8610320E5
:1052E000F87120E0354600BF6D1CA069A84204D8C3
:1052F0000225B54201D90020B5E72946384602F01B
:105300004BF98046B8F1000F00D10BE0B8F1010F66
:1053100002D008F1010008B94046A4E7B542E3D144
:105320000020A0E700BF2078042805D1F8790228E2
:1053300002D14FF0000912E04FF0FF32294620461B
:1053400002F066FE8146B9F1000F08D1BAF1000FF4
:1053500005D02A465146204602F05AFE8146B9F150
:10536000000F0DD12561D4E90510801E814202D2C3
:105370006069401E6061207940F00100207107E003
:10538000B9F1010F02D14FF0FF3000E001200546D6
:10539000284668E72DE9F34F83B0814604980068FA
:1053A0000190D9F840A000200646054600BF2846D7
:1053B0006D1C01990C5C202C03DB2F2C01D05C2C84
:1053C0000AD100E06D1C0198405D2F28FAD00198A9
:1053D000405D5C28F6D032E0FF2E03D3062005B0F6
:1053E000BDE8F08FE4B2812C13DBE0B2FE2810DCC4
:1053F00028466D1C01990F5C07EB042084B2402FF6
:1054000001DB7E2F05DD802F01DBFE2F01DD062075
:10541000E5E70121204601F0A3FC04460CB9062073
:10542000DDE7802C06DA214671A0FFF767FE08B1A0
:105430000620D4E73046761C2AF81040B7E700BFB4
:105440000198411904980160202C01DA042000E041
:105450000020804608E0701E3AF81040202C02D050
:105460002E2C00D002E0761E002EF4D100BF0020CA
:105470002AF816000EB90620B1E70B222021D9F830
:10548000380002F062FC002500E06D1C3AF81500BF
:105490002028FAD03AF815002E28F6D00DB148F0A1
:1054A000030800E0761E26B1701E3AF810002E2880
:1054B000F8D10020074602904FF0080B00BF2846A5
:1054C0006D1C3AF8104004B963E0202C03D02E2C58
:1054D00004D1B54202D048F00308F0E702985845DD
:1054E00001D2B54214D1BBF10B0F02D148F0030831
:1054F0004FE0B54201D048F00308B54200D948E07A
:105500003546082002904FF00B0BB806070ED6E781
:10551000802C09DB204601F07DFC0021009001F089
:105520001FFC044648F00208FF2C11DDABF101001E
:105530000299884204D848F00308CDF808B0BEE7C5
:105540002212D9F838300298411C02911A5419E0FD
:1055500024B1214629A0FFF7D1FD18B15F2448F0FE
:1055600003080FE0412C04DB5A2C02DC47F0020751
:1055700008E0612C06DB7A2C04DC47F00107A4F17B
:10558000200084B2D9F838300298411C02911C5492
:1055900095E700BFD9F838000078E52803D1052049
:1055A000D9F838100870BBF1080F01D1B806070E02
:1055B00007F00C000C2803D007F00300032801D1EA
:1055C00048F0020808F0020058B907F0030001286B
:1055D00001D148F0100807F00C00042801D148F070
:1055E0000808D9F8380080F80B800020F7E60000A2
:1055F000222A3A3C3E3F7C7F000000002B2C3B3DA2
:105600005B5D00002DE9F04704460E464022002174
:10561000204602F09AFB85202070C02084F82000EC
:10562000304603F07AFA8246514604F1240002F033
:10563000A2FE402500274FF001084FF0010900BFEE
:10564000C12228466D1C2254002228466D1C22547B
:1056500000BFB9F1000F06D036F81700B0F100090D
:1056600001D0781CC7B26019494602F084FEAD1C17
:1056700005F01F000028ECD108F1010000F0FF0840
:1056800036F817000028DBD184F8237084F80180F5
:10569000BDE8F08770B504464FF4077094FBF0F056
:1056A000C6B24FF4077094FBF0F100FB114085B2D5
:1056B00005E04FF4077000F009F8701EC6B2002E26
:1056C000F7D115B1284600F001F870BD0146114A26
:1056D00012884A434FF0E0235A6100229A611A4629
:1056E000126942F001021A6100BF4FF0E022106916
:1056F00000F001021AB100F48032002AF5D04FF018
:10570000E022126922F001024FF0E0231A61002228
:105710009A617047120000200146114A12784A43EC
:105720004FF0E0235A6100229A611A46126942F052
:1057300001021A6100BF4FF0E022106900F001027F
:105740001AB100F48032002AF5D04FF0E02212693D
:1057500022F001024FF0E0231A6100229A617047A3
:10576000100000202DE9F04104460E46D4F80080D8
:105770000021204600F01CFB05465DBB002700BF52
:105780004046216B02F0EAFA054605B121E098F89F
:105790000000042805D1606B0078012121EAD010B7
:1057A00009E0606B0078E52802D0606B007808B9EA
:1057B000012000E0002020B1781C0746B04201D152
:1057C00007E000270121204600F0DAF80546002D09
:1057D000D6D000BF042D00D107252846BDE8F081B2
:1057E0002DE9F04F85B0044626680021204600F0E0
:1057F000DFFA07461FB1384605B0BDE8F08F3078B4
:1058000004284CD1206C03F088F901903EE0F16847
:1058100001F1240002F003F90199884200D035E03B
:10582000F06890F8230003904FF0400A00200290A7
:105830001FE00AF01F0008B90AF1020AF16801EB43
:105840000A0002F0ECF8009001F0E4FA8346226CC2
:10585000029932F8110001F0DDFA834500D00BE027
:105860000398401EC0B203900AF1020A0298401C3D
:10587000029003980028DCD100BF039828B9216C5E
:10588000029831F8100000B906E000BF0021204660
:1058900000F006F9071EBAD000BF3846ACE74FF05B
:1058A000FF09CDF810904FF0FF30E06300BF3046A5
:1058B000216B02F053FA074607B15EE0606B057892
:1058C0000DB9042759E0606BC07A00F03F0884F8F6
:1058D0000680E52D05D008F0080040B1B8F10F0FA3
:1058E00005D04FF0FF094FF0FF30E0633EE0B8F124
:1058F0000F0F1FD1206C98B305F0400038B1606BDA
:10590000407B049025F04005A946A06AE0634D4520
:105910000CD1606B417B0498814207D1616B206C94
:10592000FFF734FC10B1A9F1010000E0FF2000F006
:10593000FF091BE0B9F1000F06D1606B02F058FDC2
:105940000499884200D118E0A06BC07A00F00100F1
:1059500038B90B22D4E90D0102F0D8F908B90CE0EE
:1059600004E04FF0FF094FF0FF30E06300212046D4
:1059700000F006F80746002F99D000BF38463BE7F5
:105980002DE9F047044689462568A06A00F1200702
:10599000206B40B12878042801D1800601E04FF443
:1059A0000010B84202D80420BDE8F087C7F3080011
:1059B00000286CD1206B401C2063E06A38B928892C
:1059C000B0EB571F63D8002020630420ECE7688900
:1059D000401E00EA5720002859D12046E16A01F014
:1059E000DBFD0646012E01D80220DDE7701C08B958
:1059F0000120D9E7A869B04243D8B9F1000F03D11B
:105A0000002020630420CFE72046E16AFFF713FC63
:105A100006460EB90720C7E7012E01D10220C3E7D1
:105A2000701C08B90120BFE7E07940F00400E07184
:105A3000284602F035FD08B10120B5E74FF40072A9
:105A4000002105F1340002F080F94FF000083146E2
:105A50002846FFF78EFB28630CE00120E8702846FB
:105A600002F01EFD08B101209EE708F10108286B35
:105A7000401C286368894045EFD8286BA0EB0800DC
:105A80002863E66231462846FFF773FB2063A7626E
:105A9000C7F3080105F1340008446063002083E780
:105AA0002DE9F05F04460F460426D4F800804FF03D
:105AB000FF0AD3466CE04046216B02F04FF90646E0
:105AC00006B168E0606B05780DB9042663E098F8CC
:105AD0000000042813D117B1832D52D15BE0852D2E
